{
  "_format": "hh-sol-artifact-1",
  "contractName": "AhorroGOVault",
  "sourceName": "contracts/AhorroGOVault.sol",
  "abi": [
    {
      "inputs": [],
      "stateMutability": "nonpayable",
      "type": "constructor"
    },
    {
      "anonymous": false,
      "inputs": [
        {
          "indexed": true,
          "internalType": "uint256",
          "name": "vaultId",
          "type": "uint256"
        },
        {
          "indexed": true,
          "internalType": "address",
          "name": "depositor",
          "type": "address"
        },
        {
          "indexed": false,
          "internalType": "uint256",
          "name": "amount",
          "type": "uint256"
        },
        {
          "indexed": false,
          "internalType": "uint256",
          "name": "newBalance",
          "type": "uint256"
        },
        {
          "indexed": false,
          "internalType": "uint256",
          "name": "timestamp",
          "type": "uint256"
        }
      ],
      "name": "DepositMade",
      "type": "event"
    },
    {
      "anonymous": false,
      "inputs": [
        {
          "indexed": true,
          "internalType": "address",
          "name": "oldAddress",
          "type": "address"
        },
        {
          "indexed": true,
          "internalType": "address",
          "name": "newAddress",
          "type": "address"
        }
      ],
      "name": "TropykusUpdated",
      "type": "event"
    },
    {
      "anonymous": false,
      "inputs": [
        {
          "indexed": true,
          "internalType": "uint256",
          "name": "vaultId",
          "type": "uint256"
        },
        {
          "indexed": true,
          "internalType": "address",
          "name": "owner",
          "type": "address"
        },
        {
          "indexed": false,
          "internalType": "uint256",
          "name": "timestamp",
          "type": "uint256"
        }
      ],
      "name": "VaultCancelled",
      "type": "event"
    },
    {
      "anonymous": false,
      "inputs": [
        {
          "indexed": true,
          "internalType": "uint256",
          "name": "vaultId",
          "type": "uint256"
        },
        {
          "indexed": true,
          "internalType": "address",
          "name": "owner",
          "type": "address"
        },
        {
          "indexed": false,
          "internalType": "uint256",
          "name": "finalBalance",
          "type": "uint256"
        },
        {
          "indexed": false,
          "internalType": "uint256",
          "name": "timestamp",
          "type": "uint256"
        }
      ],
      "name": "VaultCompleted",
      "type": "event"
    },
    {
      "anonymous": false,
      "inputs": [
        {
          "indexed": true,
          "internalType": "uint256",
          "name": "vaultId",
          "type": "uint256"
        },
        {
          "indexed": true,
          "internalType": "address",
          "name": "owner",
          "type": "address"
        },
        {
          "indexed": false,
          "internalType": "string",
          "name": "name",
          "type": "string"
        },
        {
          "indexed": false,
          "internalType": "uint256",
          "name": "target",
          "type": "uint256"
        },
        {
          "indexed": false,
          "internalType": "enum AhorroGOVault.VaultType",
          "name": "vaultType",
          "type": "uint8"
        }
      ],
      "name": "VaultCreated",
      "type": "event"
    },
    {
      "anonymous": false,
      "inputs": [
        {
          "indexed": true,
          "internalType": "uint256",
          "name": "vaultId",
          "type": "uint256"
        },
        {
          "indexed": false,
          "internalType": "uint256",
          "name": "timestamp",
          "type": "uint256"
        }
      ],
      "name": "VaultUnlocked",
      "type": "event"
    },
    {
      "anonymous": false,
      "inputs": [
        {
          "indexed": true,
          "internalType": "uint256",
          "name": "vaultId",
          "type": "uint256"
        },
        {
          "indexed": true,
          "internalType": "address",
          "name": "withdrawer",
          "type": "address"
        },
        {
          "indexed": false,
          "internalType": "uint256",
          "name": "amount",
          "type": "uint256"
        },
        {
          "indexed": false,
          "internalType": "uint256",
          "name": "timestamp",
          "type": "uint256"
        }
      ],
      "name": "WithdrawalMade",
      "type": "event"
    },
    {
      "anonymous": false,
      "inputs": [
        {
          "indexed": true,
          "internalType": "uint256",
          "name": "vaultId",
          "type": "uint256"
        },
        {
          "indexed": true,
          "internalType": "address",
          "name": "claimer",
          "type": "address"
        },
        {
          "indexed": false,
          "internalType": "uint256",
          "name": "yieldAmount",
          "type": "uint256"
        },
        {
          "indexed": false,
          "internalType": "uint256",
          "name": "timestamp",
          "type": "uint256"
        }
      ],
      "name": "YieldClaimed",
      "type": "event"
    },
    {
      "stateMutability": "payable",
      "type": "fallback"
    },
    {
      "inputs": [
        {
          "internalType": "uint256",
          "name": "vaultId",
          "type": "uint256"
        },
        {
          "internalType": "uint256",
          "name": "apy",
          "type": "uint256"
        }
      ],
      "name": "calculateEstimatedYield",
      "outputs": [
        {
          "internalType": "uint256",
          "name": "yieldAmount",
          "type": "uint256"
        }
      ],
      "stateMutability": "view",
      "type": "function"
    },
    {
      "inputs": [
        {
          "internalType": "uint256",
          "name": "vaultId",
          "type": "uint256"
        }
      ],
      "name": "cancelVault",
      "outputs": [],
      "stateMutability": "nonpayable",
      "type": "function"
    },
    {
      "inputs": [
        {
          "internalType": "string",
          "name": "name",
          "type": "string"
        },
        {
          "internalType": "string",
          "name": "icon",
          "type": "string"
        },
        {
          "internalType": "uint256",
          "name": "target",
          "type": "uint256"
        },
        {
          "internalType": "enum AhorroGOVault.VaultType",
          "name": "vaultType",
          "type": "uint8"
        },
        {
          "internalType": "address",
          "name": "beneficiary",
          "type": "address"
        },
        {
          "internalType": "bool",
          "name": "locked",
          "type": "bool"
        },
        {
          "internalType": "uint256",
          "name": "unlockDate",
          "type": "uint256"
        }
      ],
      "name": "createVault",
      "outputs": [
        {
          "internalType": "uint256",
          "name": "vaultId",
          "type": "uint256"
        }
      ],
      "stateMutability": "nonpayable",
      "type": "function"
    },
    {
      "inputs": [
        {
          "internalType": "uint256",
          "name": "vaultId",
          "type": "uint256"
        }
      ],
      "name": "deposit",
      "outputs": [
        {
          "internalType": "uint256",
          "name": "newBalance",
          "type": "uint256"
        }
      ],
      "stateMutability": "payable",
      "type": "function"
    },
    {
      "inputs": [
        {
          "internalType": "uint256",
          "name": "vaultId",
          "type": "uint256"
        }
      ],
      "name": "getProgress",
      "outputs": [
        {
          "internalType": "uint256",
          "name": "progress",
          "type": "uint256"
        }
      ],
      "stateMutability": "view",
      "type": "function"
    },
    {
      "inputs": [
        {
          "internalType": "uint256",
          "name": "vaultId",
          "type": "uint256"
        }
      ],
      "name": "getTimeRemaining",
      "outputs": [
        {
          "internalType": "uint256",
          "name": "secondsRemaining",
          "type": "uint256"
        }
      ],
      "stateMutability": "view",
      "type": "function"
    },
    {
      "inputs": [
        {
          "internalType": "address",
          "name": "user",
          "type": "address"
        }
      ],
      "name": "getUserVaults",
      "outputs": [
        {
          "internalType": "uint256[]",
          "name": "",
          "type": "uint256[]"
        }
      ],
      "stateMutability": "view",
      "type": "function"
    },
    {
      "inputs": [
        {
          "internalType": "uint256",
          "name": "vaultId",
          "type": "uint256"
        }
      ],
      "name": "getVault",
      "outputs": [
        {
          "components": [
            {
              "internalType": "address",
              "name": "owner",
              "type": "address"
            },
            {
              "internalType": "string",
              "name": "name",
              "type": "string"
            },
            {
              "internalType": "string",
              "name": "icon",
              "type": "string"
            },
            {
              "internalType": "uint256",
              "name": "target",
              "type": "uint256"
            },
            {
              "internalType": "uint256",
              "name": "current",
              "type": "uint256"
            },
            {
              "internalType": "enum AhorroGOVault.VaultType",
              "name": "vaultType",
              "type": "uint8"
            },
            {
              "internalType": "address",
              "name": "beneficiary",
              "type": "address"
            },
            {
              "internalType": "bool",
              "name": "locked",
              "type": "bool"
            },
            {
              "internalType": "uint256",
              "name": "unlockDate",
              "type": "uint256"
            },
            {
              "internalType": "enum AhorroGOVault.VaultStatus",
              "name": "status",
              "type": "uint8"
            },
            {
              "internalType": "uint256",
              "name": "createdAt",
              "type": "uint256"
            },
            {
              "internalType": "uint256",
              "name": "updatedAt",
              "type": "uint256"
            }
          ],
          "internalType": "struct AhorroGOVault.Vault",
          "name": "",
          "type": "tuple"
        }
      ],
      "stateMutability": "view",
      "type": "function"
    },
    {
      "inputs": [
        {
          "internalType": "uint256",
          "name": "vaultId",
          "type": "uint256"
        }
      ],
      "name": "isUnlocked",
      "outputs": [
        {
          "internalType": "bool",
          "name": "unlocked",
          "type": "bool"
        }
      ],
      "stateMutability": "view",
      "type": "function"
    },
    {
      "inputs": [],
      "name": "owner",
      "outputs": [
        {
          "internalType": "address",
          "name": "",
          "type": "address"
        }
      ],
      "stateMutability": "view",
      "type": "function"
    },
    {
      "inputs": [
        {
          "internalType": "address",
          "name": "",
          "type": "address"
        },
        {
          "internalType": "uint256",
          "name": "",
          "type": "uint256"
        }
      ],
      "name": "ownerVaults",
      "outputs": [
        {
          "internalType": "uint256",
          "name": "",
          "type": "uint256"
        }
      ],
      "stateMutability": "view",
      "type": "function"
    },
    {
      "inputs": [
        {
          "internalType": "address",
          "name": "_tropykusAddress",
          "type": "address"
        }
      ],
      "name": "setTropykusAddress",
      "outputs": [],
      "stateMutability": "nonpayable",
      "type": "function"
    },
    {
      "inputs": [
        {
          "internalType": "address",
          "name": "newOwner",
          "type": "address"
        }
      ],
      "name": "transferOwnership",
      "outputs": [],
      "stateMutability": "nonpayable",
      "type": "function"
    },
    {
      "inputs": [],
      "name": "tropykusAddress",
      "outputs": [
        {
          "internalType": "address",
          "name": "",
          "type": "address"
        }
      ],
      "stateMutability": "view",
      "type": "function"
    },
    {
      "inputs": [],
      "name": "vaultCounter",
      "outputs": [
        {
          "internalType": "uint256",
          "name": "",
          "type": "uint256"
        }
      ],
      "stateMutability": "view",
      "type": "function"
    },
    {
      "inputs": [
        {
          "internalType": "uint256",
          "name": "",
          "type": "uint256"
        }
      ],
      "name": "vaults",
      "outputs": [
        {
          "internalType": "address",
          "name": "owner",
          "type": "address"
        },
        {
          "internalType": "string",
          "name": "name",
          "type": "string"
        },
        {
          "internalType": "string",
          "name": "icon",
          "type": "string"
        },
        {
          "internalType": "uint256",
          "name": "target",
          "type": "uint256"
        },
        {
          "internalType": "uint256",
          "name": "current",
          "type": "uint256"
        },
        {
          "internalType": "enum AhorroGOVault.VaultType",
          "name": "vaultType",
          "type": "uint8"
        },
        {
          "internalType": "address",
          "name": "beneficiary",
          "type": "address"
        },
        {
          "internalType": "bool",
          "name": "locked",
          "type": "bool"
        },
        {
          "internalType": "uint256",
          "name": "unlockDate",
          "type": "uint256"
        },
        {
          "internalType": "enum AhorroGOVault.VaultStatus",
          "name": "status",
          "type": "uint8"
        },
        {
          "internalType": "uint256",
          "name": "createdAt",
          "type": "uint256"
        },
        {
          "internalType": "uint256",
          "name": "updatedAt",
          "type": "uint256"
        }
      ],
      "stateMutability": "view",
      "type": "function"
    },
    {
      "inputs": [
        {
          "internalType": "uint256",
          "name": "vaultId",
          "type": "uint256"
        },
        {
          "internalType": "uint256",
          "name": "amount",
          "type": "uint256"
        }
      ],
      "name": "withdraw",
      "outputs": [
        {
          "internalType": "bool",
          "name": "success",
          "type": "bool"
        }
      ],
      "stateMutability": "nonpayable",
      "type": "function"
    },
    {
      "stateMutability": "payable",
      "type": "receive"
    }
  ],
  "bytecode": "0x608060405234801561001057600080fd5b50600480546001600160a01b031916331790556000600255611aaf806100376000396000f3fe6080604052600436106100f65760003560e01c80638cd429911161008f578063b6b55f2511610061578063b6b55f25146102d5578063c121f27b146102e8578063e11efa0614610308578063e7f3c69c14610328578063f2fde38b1461035557005b80638cd42991146102525780638da5cb5b146102725780639403b63414610292578063ac958041146102bf57005b8063441a3e70116100c8578063441a3e70146101aa5780636418ad94146101da57806372abc8b7146101fa5780638c64ea4a1461021a57005b80630bab406f146100ff5780630c90d7b5146101325780630cc1a40714610152578063422a8fb61461017257005b366100fd57005b005b34801561010b57600080fd5b5061011f61011a3660046113c5565b610375565b6040519081526020015b60405180910390f35b34801561013e57600080fd5b5061011f61014d366004611403565b610400565b34801561015e57600080fd5b506100fd61016d36600461142d565b610431565b34801561017e57600080fd5b50600354610192906001600160a01b031681565b6040516001600160a01b039091168152602001610129565b3480156101b657600080fd5b506101ca6101c53660046113c5565b610590565b6040519015158152602001610129565b3480156101e657600080fd5b5061011f6101f53660046114e9565b61083c565b34801561020657600080fd5b506101ca61021536600461142d565b610ad3565b34801561022657600080fd5b5061023a61023536600461142d565b610b0a565b6040516101299c9b9a9998979695949392919061162b565b34801561025e57600080fd5b5061011f61026d36600461142d565b610c94565b34801561027e57600080fd5b50600454610192906001600160a01b031681565b34801561029e57600080fd5b506102b26102ad36600461142d565b610ce9565b60405161012991906116c6565b3480156102cb57600080fd5b5061011f60025481565b61011f6102e336600461142d565b610f06565b3480156102f457600080fd5b506100fd6103033660046117ad565b611154565b34801561031457600080fd5b5061011f61032336600461142d565b611216565b34801561033457600080fd5b506103486103433660046117ad565b611258565b60405161012991906117c8565b34801561036157600080fd5b506100fd6103703660046117ad565b6112c4565b6000828152602081905260408120600481015482036103985760009150506103fa565b6000620151808260090154426103ae9190611822565b6103b89190611835565b9050806000036103cd576000925050506103fa565b618e94818584600401546103e19190611857565b6103eb9190611857565b6103f59190611835565b925050505b92915050565b6001602052816000526040600020818154811061041c57600080fd5b90600052602060002001600091509150505481565b60008181526020819052604090205481906001600160a01b031633146104725760405162461bcd60e51b81526004016104699061186e565b60405180910390fd5b816000808281526020819052604090206007015460ff16600281111561049a5761049a6115e7565b146104b75760405162461bcd60e51b8152600401610469906118a5565b6000838152602081905260409020600481015415806104e257506005810154600160a81b900460ff16155b61053c5760405162461bcd60e51b815260206004820152602560248201527f43616e6e6f742063616e63656c206c6f636b6564207661756c7420776974682060448201526466756e647360d81b6064820152608401610469565b60078101805460ff191660021790554260098201819055604051908152339085907f63c22da2349a9598e170cb9c7e26f1f906bea8e78f0dced9d0b85b17ffe0d6119060200160405180910390a350505050565b60008281526020819052604081205483906001600160a01b031633146105c85760405162461bcd60e51b81526004016104699061186e565b836000808281526020819052604090206007015460ff1660028111156105f0576105f06115e7565b1461060d5760405162461bcd60e51b8152600401610469906118a5565b60008581526020819052604090206005810154869190600160a81b900460ff16156106865780600601544210156106865760405162461bcd60e51b815260206004820152601b60248201527f5661756c742074696d652d6c6f636b206e6f74206578706972656400000000006044820152606401610469565b600086116106e75760405162461bcd60e51b815260206004820152602860248201527f5769746864726177616c20616d6f756e74206d75737420626520677265617465604482015267072207468616e20360c41b6064820152608401610469565b600087815260208190526040902060048101548711156107405760405162461bcd60e51b8152602060048201526014602482015273496e73756666696369656e742062616c616e636560601b6044820152606401610469565b868160040160008282546107549190611822565b909155505042600982015580546040516001600160a01b03909116908890600081818185875af1925050503d80600081146107ab576040519150601f19603f3d011682016040523d82523d6000602084013e6107b0565b606091505b505080965050856107f55760405162461bcd60e51b815260206004820152600f60248201526e151c985b9cd9995c8819985a5b1959608a1b6044820152606401610469565b6040805188815242602082015233918a917f887cc922c9fb6a3a66ac86ca7a5550189370dbe58caa712bd060ad70f5328164910160405180910390a3505050505092915050565b6000808851116108855760405162461bcd60e51b81526020600482015260146024820152734e616d652063616e6e6f7420626520656d70747960601b6044820152606401610469565b600086116108d55760405162461bcd60e51b815260206004820152601d60248201527f546172676574206d7573742062652067726561746572207468616e20300000006044820152606401610469565b6c0c9f2c9cd04674edea400000008611156109255760405162461bcd60e51b815260206004820152601060248201526f54617267657420746f6f206c6172676560801b6044820152606401610469565b8215610984574282116109845760405162461bcd60e51b815260206004820152602160248201527f556e6c6f636b2064617465206d75737420626520696e207468652066757475726044820152606560f81b6064820152608401610469565b60028054906000610994836118d2565b90915550600081815260208190526040902080546001600160a01b03191633178155909150600181016109c78a82611974565b50600281016109d68982611974565b50600381018790556000600482015560058101805487919060ff19166001836002811115610a0657610a066115e7565b0217905550600581018054610100600160b01b0319166101006001600160a01b0388160260ff60a81b191617600160a81b8615150217905583610a4a576000610a4c565b825b600682015560078101805460ff19169055426008820181905560098201553360008181526001602081815260408084208054938401815584529220018490555183907f8adbc1760f78836558b3973a705f1eb4590632a0798bf4e1c392d362f3c417d890610abf908d908c908c90611a34565b60405180910390a350979650505050505050565b60008181526020819052604081206005810154600160a81b900460ff16610afd5750600192915050565b6006015442101592915050565b600060208190529081526040902080546001820180546001600160a01b039092169291610b36906118eb565b80601f0160208091040260200160405190810160405280929190818152602001828054610b62906118eb565b8015610baf5780601f10610b8457610100808354040283529160200191610baf565b820191906000526020600020905b815481529060010190602001808311610b9257829003601f168201915b505050505090806002018054610bc4906118eb565b80601f0160208091040260200160405190810160405280929190818152602001828054610bf0906118eb565b8015610c3d5780601f10610c1257610100808354040283529160200191610c3d565b820191906000526020600020905b815481529060010190602001808311610c2057829003601f168201915b5050506003840154600485015460058601546006870154600788015460088901546009909901549798949793965060ff80841696506001600160a01b0361010085041695600160a81b90940481169492939116918c565b60008181526020819052604081206005810154600160a81b900460ff16610cbe5750600092915050565b80600601544210610cd25750600092915050565b428160060154610ce29190611822565b9392505050565b610cf161134a565b600082815260208181526040918290208251610180810190935280546001600160a01b031683526001810180549192840191610d2c906118eb565b80601f0160208091040260200160405190810160405280929190818152602001828054610d58906118eb565b8015610da55780601f10610d7a57610100808354040283529160200191610da5565b820191906000526020600020905b815481529060010190602001808311610d8857829003601f168201915b50505050508152602001600282018054610dbe906118eb565b80601f0160208091040260200160405190810160405280929190818152602001828054610dea906118eb565b8015610e375780601f10610e0c57610100808354040283529160200191610e37565b820191906000526020600020905b815481529060010190602001808311610e1a57829003601f168201915b50505091835250506003820154602082015260048201546040820152600582015460609091019060ff166002811115610e7257610e726115e7565b6002811115610e8357610e836115e7565b815260058201546001600160a01b03610100820416602083015260ff600160a81b909104811615156040830152600683015460608301526007830154608090920191166002811115610ed757610ed76115e7565b6002811115610ee857610ee86115e7565b81526008820154602082015260099091015460409091015292915050565b60008181526020819052604081205482906001600160a01b03163314610f3e5760405162461bcd60e51b81526004016104699061186e565b826000808281526020819052604090206007015460ff166002811115610f6657610f666115e7565b14610f835760405162461bcd60e51b8152600401610469906118a5565b60008481526020819052604090206005810154859190600160a81b900460ff16156110065780600601544210156110065760405162461bcd60e51b815260206004820152602160248201527f5661756c74206973206c6f636b656420756e74696c20756e6c6f636b206461746044820152606560f81b6064820152608401610469565b600034116110645760405162461bcd60e51b815260206004820152602560248201527f4465706f73697420616d6f756e74206d75737420626520677265617465722074604482015264068616e20360dc1b6064820152608401610469565b600086815260208190526040812060048101805491923492611087908490611a66565b90915550504260098201556004810154600382015490965086106111025760078101805460ff1916600117905580546004820154604080519182524260208301526001600160a01b039092169189917f61faee883032856d6cd66031743c1ba635b9b3bb5ba115c3a438870695bd45ed910160405180910390a35b6004810154604080513481526020810192909252428282015251339189917f43e534af76c719a70aba9c6aea2c26b61620e8cfcf4832e47c4f273625eb60759181900360600190a35050505050919050565b6004546001600160a01b031633146111ba5760405162461bcd60e51b815260206004820152602360248201527f4f6e6c79206f776e65722063616e207365742054726f70796b7573206164647260448201526265737360e81b6064820152608401610469565b6003546040516001600160a01b038084169216907f02a03146c935b3a935ef4ea9bb0d691bd41d19b7174aac8b4bd8515d7143b9c690600090a3600380546001600160a01b0319166001600160a01b0392909216919091179055565b6000818152602081905260408120600381015482036112385750600092915050565b6003810154600482015461124e90612710611857565b610ce29190611835565b6001600160a01b0381166000908152600160209081526040918290208054835181840281018401909452808452606093928301828280156112b857602002820191906000526020600020905b8154815260200190600101908083116112a4575b50505050509050919050565b6004546001600160a01b031633146113285760405162461bcd60e51b815260206004820152602160248201527f4f6e6c79206f776e65722063616e207472616e73666572206f776e65727368696044820152600760fc1b6064820152608401610469565b600480546001600160a01b0319166001600160a01b0392909216919091179055565b60405180610180016040528060006001600160a01b031681526020016060815260200160608152602001600081526020016000815260200160006002811115611395576113956115e7565b815260006020820181905260408201819052606082018190526080820181905260a0820181905260c09091015290565b600080604083850312156113d857600080fd5b50508035926020909101359150565b80356001600160a01b03811681146113fe57600080fd5b919050565b6000806040838503121561141657600080fd5b61141f836113e7565b946020939093013593505050565b60006020828403121561143f57600080fd5b5035919050565b634e487b7160e01b600052604160045260246000fd5b600082601f83011261146d57600080fd5b813567ffffffffffffffff8082111561148857611488611446565b604051601f8301601f19908116603f011681019082821181831017156114b0576114b0611446565b816040528381528660208588010111156114c957600080fd5b836020870160208301376000602085830101528094505050505092915050565b600080600080600080600060e0888a03121561150457600080fd5b873567ffffffffffffffff8082111561151c57600080fd5b6115288b838c0161145c565b985060208a013591508082111561153e57600080fd5b5061154b8a828b0161145c565b9650506040880135945060608801356003811061156757600080fd5b9350611575608089016113e7565b925060a0880135801515811461158a57600080fd5b8092505060c0880135905092959891949750929550565b6000815180845260005b818110156115c7576020818501810151868301820152016115ab565b506000602082860101526020601f19601f83011685010191505092915050565b634e487b7160e01b600052602160045260246000fd5b6003811061161b57634e487b7160e01b600052602160045260246000fd5b50565b611627816115fd565b9052565b600060018060a01b03808f168352610180602084015261164f61018084018f6115a1565b8381036040850152611661818f6115a1565b9250508b60608401528a60808401526116798a6115fd565b8960a084015280891660c08401525086151560e0830152856101008301526116a0856115fd565b8461012083015283610140830152826101608301529d9c50505050505050505050505050565b602081526116e06020820183516001600160a01b03169052565b600060208301516101808060408501526116fe6101a08501836115a1565b91506040850151601f1985840301606086015261171b83826115a1565b92505060608501516080850152608085015160a085015260a085015161174460c086018261161e565b5060c08501516001600160a01b03811660e08601525060e085015161010061176f8187018315159052565b8601516101208681019190915286015190506101406117908187018361161e565b860151610160868101919091529095015193019290925250919050565b6000602082840312156117bf57600080fd5b610ce2826113e7565b6020808252825182820181905260009190848201906040850190845b81811015611800578351835292840192918401916001016117e4565b50909695505050505050565b634e487b7160e01b600052601160045260246000fd5b818103818111156103fa576103fa61180c565b60008261185257634e487b7160e01b600052601260045260246000fd5b500490565b80820281158282048414176103fa576103fa61180c565b60208082526019908201527f43616c6c6572206973206e6f74207661756c74206f776e657200000000000000604082015260600190565b6020808252601390820152725661756c74206973206e6f742061637469766560681b604082015260600190565b6000600182016118e4576118e461180c565b5060010190565b600181811c908216806118ff57607f821691505b60208210810361191f57634e487b7160e01b600052602260045260246000fd5b50919050565b601f82111561196f57600081815260208120601f850160051c8101602086101561194c5750805b601f850160051c820191505b8181101561196b57828155600101611958565b5050505b505050565b815167ffffffffffffffff81111561198e5761198e611446565b6119a28161199c84546118eb565b84611925565b602080601f8311600181146119d757600084156119bf5750858301515b600019600386901b1c1916600185901b17855561196b565b600085815260208120601f198616915b82811015611a06578886015182559484019460019091019084016119e7565b5085821015611a245787850151600019600388901b60f8161c191681555b5050505050600190811b01905550565b606081526000611a4760608301866115a1565b9050836020830152611a58836115fd565b826040830152949350505050565b808201808211156103fa576103fa61180c56fea26469706673582212208ec25cc84963fe21e3d28821c9676f8508d7892bc07f57e9b4dd8e0b9e5d16bf64736f6c63430008130033",
  "linkReferences": {},
  "deployedLinkReferences": {}
}